{
	"Contracts/proposal.sol": {
		"ProposalContract": {
			"abi": [
				{
					"inputs": [],
					"stateMutability": "nonpayable",
					"type": "constructor"
				},
				{
					"inputs": [
						{
							"internalType": "string",
							"name": "title",
							"type": "string"
						},
						{
							"internalType": "string",
							"name": "_description",
							"type": "string"
						},
						{
							"internalType": "uint256",
							"name": "_total_vote_to_end",
							"type": "uint256"
						}
					],
					"name": "create",
					"outputs": [],
					"stateMutability": "nonpayable",
					"type": "function"
				},
				{
					"inputs": [
						{
							"internalType": "address",
							"name": "new_owner",
							"type": "address"
						}
					],
					"name": "setOwner",
					"outputs": [],
					"stateMutability": "nonpayable",
					"type": "function"
				},
				{
					"inputs": [
						{
							"internalType": "uint8",
							"name": "choice",
							"type": "uint8"
						}
					],
					"name": "vote",
					"outputs": [],
					"stateMutability": "nonpayable",
					"type": "function"
				}
			],
			"devdoc": {
				"kind": "dev",
				"methods": {},
				"version": 1
			},
			"evm": {
				"assembly": "    /* \"Contracts/proposal.sol\":61:1224  contract ProposalContract {... */\n  mstore(0x40, 0x80)\n    /* \"Contracts/proposal.sol\":741:792  constructor() {... */\n  callvalue\n  dup1\n  iszero\n  tag_1\n  jumpi\n  0x00\n  dup1\n  revert\ntag_1:\n  pop\n    /* \"Contracts/proposal.sol\":774:784  msg.sender */\n  caller\n    /* \"Contracts/proposal.sol\":766:771  owner */\n  0x01\n  0x00\n    /* \"Contracts/proposal.sol\":766:784  owner = msg.sender */\n  0x0100\n  exp\n  dup2\n  sload\n  dup2\n  0xffffffffffffffffffffffffffffffffffffffff\n  mul\n  not\n  and\n  swap1\n  dup4\n  0xffffffffffffffffffffffffffffffffffffffff\n  and\n  mul\n  or\n  swap1\n  sstore\n  pop\n    /* \"Contracts/proposal.sol\":61:1224  contract ProposalContract {... */\n  dataSize(sub_0)\n  dup1\n  dataOffset(sub_0)\n  0x00\n  codecopy\n  0x00\n  return\nstop\n\nsub_0: assembly {\n        /* \"Contracts/proposal.sol\":61:1224  contract ProposalContract {... */\n      mstore(0x40, 0x80)\n      callvalue\n      dup1\n      iszero\n      tag_1\n      jumpi\n      0x00\n      dup1\n      revert\n    tag_1:\n      pop\n      jumpi(tag_2, lt(calldatasize, 0x04))\n      shr(0xe0, calldataload(0x00))\n      dup1\n      0x13af4035\n      eq\n      tag_3\n      jumpi\n      dup1\n      0x3ca6d100\n      eq\n      tag_4\n      jumpi\n      dup1\n      0xb3f98adc\n      eq\n      tag_5\n      jumpi\n    tag_2:\n      0x00\n      dup1\n      revert\n        /* \"Contracts/proposal.sol\":884:975  function setOwner(address new_owner) external onlyOwner{... */\n    tag_3:\n      tag_6\n      0x04\n      dup1\n      calldatasize\n      sub\n      dup2\n      add\n      swap1\n      tag_7\n      swap2\n      swap1\n      tag_8\n      jump\t// in\n    tag_7:\n      tag_9\n      jump\t// in\n    tag_6:\n      stop\n        /* \"Contracts/proposal.sol\":476:735  function create(string calldata title, string calldata _description, uint256 _total_vote_to_end) external onlyOwner {... */\n    tag_4:\n      tag_10\n      0x04\n      dup1\n      calldatasize\n      sub\n      dup2\n      add\n      swap1\n      tag_11\n      swap2\n      swap1\n      tag_12\n      jump\t// in\n    tag_11:\n      tag_13\n      jump\t// in\n    tag_10:\n      stop\n        /* \"Contracts/proposal.sol\":983:1209  function vote(uint8 choice) external {... */\n    tag_5:\n      tag_14\n      0x04\n      dup1\n      calldatasize\n      sub\n      dup2\n      add\n      swap1\n      tag_15\n      swap2\n      swap1\n      tag_16\n      jump\t// in\n    tag_15:\n      tag_17\n      jump\t// in\n    tag_14:\n      stop\n        /* \"Contracts/proposal.sol\":884:975  function setOwner(address new_owner) external onlyOwner{... */\n    tag_9:\n        /* \"Contracts/proposal.sol\":852:857  owner */\n      0x01\n      0x00\n      swap1\n      sload\n      swap1\n      0x0100\n      exp\n      swap1\n      div\n      0xffffffffffffffffffffffffffffffffffffffff\n      and\n        /* \"Contracts/proposal.sol\":838:857  msg.sender == owner */\n      0xffffffffffffffffffffffffffffffffffffffff\n      and\n        /* \"Contracts/proposal.sol\":838:848  msg.sender */\n      caller\n        /* \"Contracts/proposal.sol\":838:857  msg.sender == owner */\n      0xffffffffffffffffffffffffffffffffffffffff\n      and\n      eq\n        /* \"Contracts/proposal.sol\":830:858  require(msg.sender == owner) */\n      tag_19\n      jumpi\n      0x00\n      dup1\n      revert\n    tag_19:\n        /* \"Contracts/proposal.sol\":958:967  new_owner */\n      dup1\n        /* \"Contracts/proposal.sol\":950:955  owner */\n      0x01\n      0x00\n        /* \"Contracts/proposal.sol\":950:967  owner = new_owner */\n      0x0100\n      exp\n      dup2\n      sload\n      dup2\n      0xffffffffffffffffffffffffffffffffffffffff\n      mul\n      not\n      and\n      swap1\n      dup4\n      0xffffffffffffffffffffffffffffffffffffffff\n      and\n      mul\n      or\n      swap1\n      sstore\n      pop\n        /* \"Contracts/proposal.sol\":884:975  function setOwner(address new_owner) external onlyOwner{... */\n      pop\n      jump\t// out\n        /* \"Contracts/proposal.sol\":476:735  function create(string calldata title, string calldata _description, uint256 _total_vote_to_end) external onlyOwner {... */\n    tag_13:\n        /* \"Contracts/proposal.sol\":852:857  owner */\n      0x01\n      0x00\n      swap1\n      sload\n      swap1\n      0x0100\n      exp\n      swap1\n      div\n      0xffffffffffffffffffffffffffffffffffffffff\n      and\n        /* \"Contracts/proposal.sol\":838:857  msg.sender == owner */\n      0xffffffffffffffffffffffffffffffffffffffff\n      and\n        /* \"Contracts/proposal.sol\":838:848  msg.sender */\n      caller\n        /* \"Contracts/proposal.sol\":838:857  msg.sender == owner */\n      0xffffffffffffffffffffffffffffffffffffffff\n      and\n      eq\n        /* \"Contracts/proposal.sol\":830:858  require(msg.sender == owner) */\n      tag_22\n      jumpi\n      0x00\n      dup1\n      revert\n    tag_22:\n        /* \"Contracts/proposal.sol\":614:615  1 */\n      0x01\n        /* \"Contracts/proposal.sol\":603:610  counter */\n      0x00\n      dup1\n        /* \"Contracts/proposal.sol\":603:615  counter += 1 */\n      dup3\n      dup3\n      sload\n      tag_24\n      swap2\n      swap1\n      tag_25\n      jump\t// in\n    tag_24:\n      swap3\n      pop\n      pop\n      dup2\n      swap1\n      sstore\n      pop\n        /* \"Contracts/proposal.sol\":654:730  Proposal(title, \" \", _description, 0, 0, 0, _total_vote_to_end, false, true) */\n      mload(0x40)\n      dup1\n      0x0120\n      add\n      0x40\n      mstore\n      dup1\n        /* \"Contracts/proposal.sol\":663:668  title */\n      dup7\n      dup7\n        /* \"Contracts/proposal.sol\":654:730  Proposal(title, \" \", _description, 0, 0, 0, _total_vote_to_end, false, true) */\n      dup1\n      dup1\n      0x1f\n      add\n      0x20\n      dup1\n      swap2\n      div\n      mul\n      0x20\n      add\n      mload(0x40)\n      swap1\n      dup2\n      add\n      0x40\n      mstore\n      dup1\n      swap4\n      swap3\n      swap2\n      swap1\n      dup2\n      dup2\n      mstore\n      0x20\n      add\n      dup4\n      dup4\n      dup1\n      dup3\n      dup5\n      calldatacopy\n      0x00\n      dup2\n      dup5\n      add\n      mstore\n      not(0x1f)\n      0x1f\n      dup3\n      add\n      and\n      swap1\n      pop\n      dup1\n      dup4\n      add\n      swap3\n      pop\n      pop\n      pop\n      pop\n      pop\n      pop\n      pop\n      dup2\n      mstore\n      0x20\n      add\n      mload(0x40)\n      dup1\n      0x40\n      add\n      0x40\n      mstore\n      dup1\n      0x01\n      dup2\n      mstore\n      0x20\n      add\n      0x2000000000000000000000000000000000000000000000000000000000000000\n      dup2\n      mstore\n      pop\n      dup2\n      mstore\n      0x20\n      add\n        /* \"Contracts/proposal.sol\":675:687  _description */\n      dup5\n      dup5\n        /* \"Contracts/proposal.sol\":654:730  Proposal(title, \" \", _description, 0, 0, 0, _total_vote_to_end, false, true) */\n      dup1\n      dup1\n      0x1f\n      add\n      0x20\n      dup1\n      swap2\n      div\n      mul\n      0x20\n      add\n      mload(0x40)\n      swap1\n      dup2\n      add\n      0x40\n      mstore\n      dup1\n      swap4\n      swap3\n      swap2\n      swap1\n      dup2\n      dup2\n      mstore\n      0x20\n      add\n      dup4\n      dup4\n      dup1\n      dup3\n      dup5\n      calldatacopy\n      0x00\n      dup2\n      dup5\n      add\n      mstore\n      not(0x1f)\n      0x1f\n      dup3\n      add\n      and\n      swap1\n      pop\n      dup1\n      dup4\n      add\n      swap3\n      pop\n      pop\n      pop\n      pop\n      pop\n      pop\n      pop\n      dup2\n      mstore\n      0x20\n      add\n        /* \"Contracts/proposal.sol\":689:690  0 */\n      0x00\n        /* \"Contracts/proposal.sol\":654:730  Proposal(title, \" \", _description, 0, 0, 0, _total_vote_to_end, false, true) */\n      dup2\n      mstore\n      0x20\n      add\n        /* \"Contracts/proposal.sol\":692:693  0 */\n      0x00\n        /* \"Contracts/proposal.sol\":654:730  Proposal(title, \" \", _description, 0, 0, 0, _total_vote_to_end, false, true) */\n      dup2\n      mstore\n      0x20\n      add\n        /* \"Contracts/proposal.sol\":695:696  0 */\n      0x00\n        /* \"Contracts/proposal.sol\":654:730  Proposal(title, \" \", _description, 0, 0, 0, _total_vote_to_end, false, true) */\n      dup2\n      mstore\n      0x20\n      add\n        /* \"Contracts/proposal.sol\":698:716  _total_vote_to_end */\n      dup3\n        /* \"Contracts/proposal.sol\":654:730  Proposal(title, \" \", _description, 0, 0, 0, _total_vote_to_end, false, true) */\n      dup2\n      mstore\n      0x20\n      add\n        /* \"Contracts/proposal.sol\":718:723  false */\n      0x00\n        /* \"Contracts/proposal.sol\":654:730  Proposal(title, \" \", _description, 0, 0, 0, _total_vote_to_end, false, true) */\n      iszero\n      iszero\n      dup2\n      mstore\n      0x20\n      add\n        /* \"Contracts/proposal.sol\":725:729  true */\n      0x01\n        /* \"Contracts/proposal.sol\":654:730  Proposal(title, \" \", _description, 0, 0, 0, _total_vote_to_end, false, true) */\n      iszero\n      iszero\n      dup2\n      mstore\n      pop\n        /* \"Contracts/proposal.sol\":626:642  proposal_history */\n      0x02\n        /* \"Contracts/proposal.sol\":626:651  proposal_history[counter] */\n      0x00\n        /* \"Contracts/proposal.sol\":643:650  counter */\n      dup1\n      sload\n        /* \"Contracts/proposal.sol\":626:651  proposal_history[counter] */\n      dup2\n      mstore\n      0x20\n      add\n      swap1\n      dup2\n      mstore\n      0x20\n      add\n      0x00\n      keccak256\n        /* \"Contracts/proposal.sol\":626:730  proposal_history[counter] = Proposal(title, \" \", _description, 0, 0, 0, _total_vote_to_end, false, true) */\n      0x00\n      dup3\n      add\n      mload\n      dup2\n      0x00\n      add\n      swap1\n      dup2\n      tag_26\n      swap2\n      swap1\n      tag_27\n      jump\t// in\n    tag_26:\n      pop\n      0x20\n      dup3\n      add\n      mload\n      dup2\n      0x01\n      add\n      swap1\n      dup2\n      tag_28\n      swap2\n      swap1\n      tag_27\n      jump\t// in\n    tag_28:\n      pop\n      0x40\n      dup3\n      add\n      mload\n      dup2\n      0x02\n      add\n      swap1\n      dup2\n      tag_29\n      swap2\n      swap1\n      tag_27\n      jump\t// in\n    tag_29:\n      pop\n      0x60\n      dup3\n      add\n      mload\n      dup2\n      0x03\n      add\n      sstore\n      0x80\n      dup3\n      add\n      mload\n      dup2\n      0x04\n      add\n      sstore\n      0xa0\n      dup3\n      add\n      mload\n      dup2\n      0x05\n      add\n      sstore\n      0xc0\n      dup3\n      add\n      mload\n      dup2\n      0x06\n      add\n      sstore\n      0xe0\n      dup3\n      add\n      mload\n      dup2\n      0x07\n      add\n      exp(0x0100, 0x00)\n      dup2\n      sload\n      dup2\n      0xff\n      mul\n      not\n      and\n      swap1\n      dup4\n      iszero\n      iszero\n      mul\n      or\n      swap1\n      sstore\n      pop\n      0x0100\n      dup3\n      add\n      mload\n      dup2\n      0x07\n      add\n      exp(0x0100, 0x01)\n      dup2\n      sload\n      dup2\n      0xff\n      mul\n      not\n      and\n      swap1\n      dup4\n      iszero\n      iszero\n      mul\n      or\n      swap1\n      sstore\n      pop\n      swap1\n      pop\n      pop\n        /* \"Contracts/proposal.sol\":476:735  function create(string calldata title, string calldata _description, uint256 _total_vote_to_end) external onlyOwner {... */\n      pop\n      pop\n      pop\n      pop\n      pop\n      jump\t// out\n        /* \"Contracts/proposal.sol\":983:1209  function vote(uint8 choice) external {... */\n    tag_17:\n        /* \"Contracts/proposal.sol\":1059:1084  Proposal storage proposal */\n      0x00\n        /* \"Contracts/proposal.sol\":1087:1103  proposal_history */\n      0x02\n        /* \"Contracts/proposal.sol\":1087:1112  proposal_history[counter] */\n      0x00\n        /* \"Contracts/proposal.sol\":1104:1111  counter */\n      dup1\n      sload\n        /* \"Contracts/proposal.sol\":1087:1112  proposal_history[counter] */\n      dup2\n      mstore\n      0x20\n      add\n      swap1\n      dup2\n      mstore\n      0x20\n      add\n      0x00\n      keccak256\n        /* \"Contracts/proposal.sol\":1059:1112  Proposal storage proposal = proposal_history[counter] */\n      swap1\n      pop\n        /* \"Contracts/proposal.sol\":1124:1142  uint256 total_vote */\n      0x00\n        /* \"Contracts/proposal.sol\":1182:1190  proposal */\n      dup2\n        /* \"Contracts/proposal.sol\":1182:1195  proposal.pass */\n      0x05\n      add\n      sload\n        /* \"Contracts/proposal.sol\":1164:1172  proposal */\n      dup3\n        /* \"Contracts/proposal.sol\":1164:1179  proposal.reject */\n      0x04\n      add\n      sload\n        /* \"Contracts/proposal.sol\":1145:1153  proposal */\n      dup4\n        /* \"Contracts/proposal.sol\":1145:1161  proposal.approve */\n      0x03\n      add\n      sload\n        /* \"Contracts/proposal.sol\":1145:1179  proposal.approve + proposal.reject */\n      tag_31\n      swap2\n      swap1\n      tag_25\n      jump\t// in\n    tag_31:\n        /* \"Contracts/proposal.sol\":1145:1195  proposal.approve + proposal.reject + proposal.pass */\n      tag_32\n      swap2\n      swap1\n      tag_25\n      jump\t// in\n    tag_32:\n        /* \"Contracts/proposal.sol\":1124:1195  uint256 total_vote = proposal.approve + proposal.reject + proposal.pass */\n      swap1\n      pop\n        /* \"Contracts/proposal.sol\":1020:1209  {... */\n      pop\n      pop\n        /* \"Contracts/proposal.sol\":983:1209  function vote(uint8 choice) external {... */\n      pop\n      jump\t// out\n        /* \"#utility.yul\":88:205   */\n    tag_34:\n        /* \"#utility.yul\":197:198   */\n      0x00\n        /* \"#utility.yul\":194:195   */\n      dup1\n        /* \"#utility.yul\":187:199   */\n      revert\n        /* \"#utility.yul\":211:328   */\n    tag_35:\n        /* \"#utility.yul\":320:321   */\n      0x00\n        /* \"#utility.yul\":317:318   */\n      dup1\n        /* \"#utility.yul\":310:322   */\n      revert\n        /* \"#utility.yul\":334:460   */\n    tag_36:\n        /* \"#utility.yul\":371:378   */\n      0x00\n        /* \"#utility.yul\":411:453   */\n      0xffffffffffffffffffffffffffffffffffffffff\n        /* \"#utility.yul\":404:409   */\n      dup3\n        /* \"#utility.yul\":400:454   */\n      and\n        /* \"#utility.yul\":389:454   */\n      swap1\n      pop\n        /* \"#utility.yul\":334:460   */\n      swap2\n      swap1\n      pop\n      jump\t// out\n        /* \"#utility.yul\":466:562   */\n    tag_37:\n        /* \"#utility.yul\":503:510   */\n      0x00\n        /* \"#utility.yul\":532:556   */\n      tag_76\n        /* \"#utility.yul\":550:555   */\n      dup3\n        /* \"#utility.yul\":532:556   */\n      tag_36\n      jump\t// in\n    tag_76:\n        /* \"#utility.yul\":521:556   */\n      swap1\n      pop\n        /* \"#utility.yul\":466:562   */\n      swap2\n      swap1\n      pop\n      jump\t// out\n        /* \"#utility.yul\":568:690   */\n    tag_38:\n        /* \"#utility.yul\":641:665   */\n      tag_78\n        /* \"#utility.yul\":659:664   */\n      dup2\n        /* \"#utility.yul\":641:665   */\n      tag_37\n      jump\t// in\n    tag_78:\n        /* \"#utility.yul\":634:639   */\n      dup2\n        /* \"#utility.yul\":631:666   */\n      eq\n        /* \"#utility.yul\":621:684   */\n      tag_79\n      jumpi\n        /* \"#utility.yul\":680:681   */\n      0x00\n        /* \"#utility.yul\":677:678   */\n      dup1\n        /* \"#utility.yul\":670:682   */\n      revert\n        /* \"#utility.yul\":621:684   */\n    tag_79:\n        /* \"#utility.yul\":568:690   */\n      pop\n      jump\t// out\n        /* \"#utility.yul\":696:835   */\n    tag_39:\n        /* \"#utility.yul\":742:747   */\n      0x00\n        /* \"#utility.yul\":780:786   */\n      dup2\n        /* \"#utility.yul\":767:787   */\n      calldataload\n        /* \"#utility.yul\":758:787   */\n      swap1\n      pop\n        /* \"#utility.yul\":796:829   */\n      tag_81\n        /* \"#utility.yul\":823:828   */\n      dup2\n        /* \"#utility.yul\":796:829   */\n      tag_38\n      jump\t// in\n    tag_81:\n        /* \"#utility.yul\":696:835   */\n      swap3\n      swap2\n      pop\n      pop\n      jump\t// out\n        /* \"#utility.yul\":841:1170   */\n    tag_8:\n        /* \"#utility.yul\":900:906   */\n      0x00\n        /* \"#utility.yul\":949:951   */\n      0x20\n        /* \"#utility.yul\":937:946   */\n      dup3\n        /* \"#utility.yul\":928:935   */\n      dup5\n        /* \"#utility.yul\":924:947   */\n      sub\n        /* \"#utility.yul\":920:952   */\n      slt\n        /* \"#utility.yul\":917:1036   */\n      iszero\n      tag_83\n      jumpi\n        /* \"#utility.yul\":955:1034   */\n      tag_84\n      tag_34\n      jump\t// in\n    tag_84:\n        /* \"#utility.yul\":917:1036   */\n    tag_83:\n        /* \"#utility.yul\":1075:1076   */\n      0x00\n        /* \"#utility.yul\":1100:1153   */\n      tag_85\n        /* \"#utility.yul\":1145:1152   */\n      dup5\n        /* \"#utility.yul\":1136:1142   */\n      dup3\n        /* \"#utility.yul\":1125:1134   */\n      dup6\n        /* \"#utility.yul\":1121:1143   */\n      add\n        /* \"#utility.yul\":1100:1153   */\n      tag_39\n      jump\t// in\n    tag_85:\n        /* \"#utility.yul\":1090:1153   */\n      swap2\n      pop\n        /* \"#utility.yul\":1046:1163   */\n      pop\n        /* \"#utility.yul\":841:1170   */\n      swap3\n      swap2\n      pop\n      pop\n      jump\t// out\n        /* \"#utility.yul\":1176:1293   */\n    tag_40:\n        /* \"#utility.yul\":1285:1286   */\n      0x00\n        /* \"#utility.yul\":1282:1283   */\n      dup1\n        /* \"#utility.yul\":1275:1287   */\n      revert\n        /* \"#utility.yul\":1299:1416   */\n    tag_41:\n        /* \"#utility.yul\":1408:1409   */\n      0x00\n        /* \"#utility.yul\":1405:1406   */\n      dup1\n        /* \"#utility.yul\":1398:1410   */\n      revert\n        /* \"#utility.yul\":1422:1539   */\n    tag_42:\n        /* \"#utility.yul\":1531:1532   */\n      0x00\n        /* \"#utility.yul\":1528:1529   */\n      dup1\n        /* \"#utility.yul\":1521:1533   */\n      revert\n        /* \"#utility.yul\":1559:2112   */\n    tag_43:\n        /* \"#utility.yul\":1617:1625   */\n      0x00\n        /* \"#utility.yul\":1627:1633   */\n      dup1\n        /* \"#utility.yul\":1677:1680   */\n      dup4\n        /* \"#utility.yul\":1670:1674   */\n      0x1f\n        /* \"#utility.yul\":1662:1668   */\n      dup5\n        /* \"#utility.yul\":1658:1675   */\n      add\n        /* \"#utility.yul\":1654:1681   */\n      slt\n        /* \"#utility.yul\":1644:1766   */\n      tag_90\n      jumpi\n        /* \"#utility.yul\":1685:1764   */\n      tag_91\n      tag_40\n      jump\t// in\n    tag_91:\n        /* \"#utility.yul\":1644:1766   */\n    tag_90:\n        /* \"#utility.yul\":1798:1804   */\n      dup3\n        /* \"#utility.yul\":1785:1805   */\n      calldataload\n        /* \"#utility.yul\":1775:1805   */\n      swap1\n      pop\n        /* \"#utility.yul\":1828:1846   */\n      0xffffffffffffffff\n        /* \"#utility.yul\":1820:1826   */\n      dup2\n        /* \"#utility.yul\":1817:1847   */\n      gt\n        /* \"#utility.yul\":1814:1931   */\n      iszero\n      tag_92\n      jumpi\n        /* \"#utility.yul\":1850:1929   */\n      tag_93\n      tag_41\n      jump\t// in\n    tag_93:\n        /* \"#utility.yul\":1814:1931   */\n    tag_92:\n        /* \"#utility.yul\":1964:1968   */\n      0x20\n        /* \"#utility.yul\":1956:1962   */\n      dup4\n        /* \"#utility.yul\":1952:1969   */\n      add\n        /* \"#utility.yul\":1940:1969   */\n      swap2\n      pop\n        /* \"#utility.yul\":2018:2021   */\n      dup4\n        /* \"#utility.yul\":2010:2014   */\n      0x01\n        /* \"#utility.yul\":2002:2008   */\n      dup3\n        /* \"#utility.yul\":1998:2015   */\n      mul\n        /* \"#utility.yul\":1988:1996   */\n      dup4\n        /* \"#utility.yul\":1984:2016   */\n      add\n        /* \"#utility.yul\":1981:2022   */\n      gt\n        /* \"#utility.yul\":1978:2106   */\n      iszero\n      tag_94\n      jumpi\n        /* \"#utility.yul\":2025:2104   */\n      tag_95\n      tag_42\n      jump\t// in\n    tag_95:\n        /* \"#utility.yul\":1978:2106   */\n    tag_94:\n        /* \"#utility.yul\":1559:2112   */\n      swap3\n      pop\n      swap3\n      swap1\n      pop\n      jump\t// out\n        /* \"#utility.yul\":2118:2195   */\n    tag_44:\n        /* \"#utility.yul\":2155:2162   */\n      0x00\n        /* \"#utility.yul\":2184:2189   */\n      dup2\n        /* \"#utility.yul\":2173:2189   */\n      swap1\n      pop\n        /* \"#utility.yul\":2118:2195   */\n      swap2\n      swap1\n      pop\n      jump\t// out\n        /* \"#utility.yul\":2201:2323   */\n    tag_45:\n        /* \"#utility.yul\":2274:2298   */\n      tag_98\n        /* \"#utility.yul\":2292:2297   */\n      dup2\n        /* \"#utility.yul\":2274:2298   */\n      tag_44\n      jump\t// in\n    tag_98:\n        /* \"#utility.yul\":2267:2272   */\n      dup2\n        /* \"#utility.yul\":2264:2299   */\n      eq\n        /* \"#utility.yul\":2254:2317   */\n      tag_99\n      jumpi\n        /* \"#utility.yul\":2313:2314   */\n      0x00\n        /* \"#utility.yul\":2310:2311   */\n      dup1\n        /* \"#utility.yul\":2303:2315   */\n      revert\n        /* \"#utility.yul\":2254:2317   */\n    tag_99:\n        /* \"#utility.yul\":2201:2323   */\n      pop\n      jump\t// out\n        /* \"#utility.yul\":2329:2468   */\n    tag_46:\n        /* \"#utility.yul\":2375:2380   */\n      0x00\n        /* \"#utility.yul\":2413:2419   */\n      dup2\n        /* \"#utility.yul\":2400:2420   */\n      calldataload\n        /* \"#utility.yul\":2391:2420   */\n      swap1\n      pop\n        /* \"#utility.yul\":2429:2462   */\n      tag_101\n        /* \"#utility.yul\":2456:2461   */\n      dup2\n        /* \"#utility.yul\":2429:2462   */\n      tag_45\n      jump\t// in\n    tag_101:\n        /* \"#utility.yul\":2329:2468   */\n      swap3\n      swap2\n      pop\n      pop\n      jump\t// out\n        /* \"#utility.yul\":2474:3493   */\n    tag_12:\n        /* \"#utility.yul\":2575:2581   */\n      0x00\n        /* \"#utility.yul\":2583:2589   */\n      dup1\n        /* \"#utility.yul\":2591:2597   */\n      0x00\n        /* \"#utility.yul\":2599:2605   */\n      dup1\n        /* \"#utility.yul\":2607:2613   */\n      0x00\n        /* \"#utility.yul\":2656:2658   */\n      0x60\n        /* \"#utility.yul\":2644:2653   */\n      dup7\n        /* \"#utility.yul\":2635:2642   */\n      dup9\n        /* \"#utility.yul\":2631:2654   */\n      sub\n        /* \"#utility.yul\":2627:2659   */\n      slt\n        /* \"#utility.yul\":2624:2743   */\n      iszero\n      tag_103\n      jumpi\n        /* \"#utility.yul\":2662:2741   */\n      tag_104\n      tag_34\n      jump\t// in\n    tag_104:\n        /* \"#utility.yul\":2624:2743   */\n    tag_103:\n        /* \"#utility.yul\":2810:2811   */\n      0x00\n        /* \"#utility.yul\":2799:2808   */\n      dup7\n        /* \"#utility.yul\":2795:2812   */\n      add\n        /* \"#utility.yul\":2782:2813   */\n      calldataload\n        /* \"#utility.yul\":2840:2858   */\n      0xffffffffffffffff\n        /* \"#utility.yul\":2832:2838   */\n      dup2\n        /* \"#utility.yul\":2829:2859   */\n      gt\n        /* \"#utility.yul\":2826:2943   */\n      iszero\n      tag_105\n      jumpi\n        /* \"#utility.yul\":2862:2941   */\n      tag_106\n      tag_35\n      jump\t// in\n    tag_106:\n        /* \"#utility.yul\":2826:2943   */\n    tag_105:\n        /* \"#utility.yul\":2975:3040   */\n      tag_107\n        /* \"#utility.yul\":3032:3039   */\n      dup9\n        /* \"#utility.yul\":3023:3029   */\n      dup3\n        /* \"#utility.yul\":3012:3021   */\n      dup10\n        /* \"#utility.yul\":3008:3030   */\n      add\n        /* \"#utility.yul\":2975:3040   */\n      tag_43\n      jump\t// in\n    tag_107:\n        /* \"#utility.yul\":2957:3040   */\n      swap6\n      pop\n      swap6\n      pop\n        /* \"#utility.yul\":2753:3050   */\n      pop\n        /* \"#utility.yul\":3117:3119   */\n      0x20\n        /* \"#utility.yul\":3106:3115   */\n      dup7\n        /* \"#utility.yul\":3102:3120   */\n      add\n        /* \"#utility.yul\":3089:3121   */\n      calldataload\n        /* \"#utility.yul\":3148:3166   */\n      0xffffffffffffffff\n        /* \"#utility.yul\":3140:3146   */\n      dup2\n        /* \"#utility.yul\":3137:3167   */\n      gt\n        /* \"#utility.yul\":3134:3251   */\n      iszero\n      tag_108\n      jumpi\n        /* \"#utility.yul\":3170:3249   */\n      tag_109\n      tag_35\n      jump\t// in\n    tag_109:\n        /* \"#utility.yul\":3134:3251   */\n    tag_108:\n        /* \"#utility.yul\":3283:3348   */\n      tag_110\n        /* \"#utility.yul\":3340:3347   */\n      dup9\n        /* \"#utility.yul\":3331:3337   */\n      dup3\n        /* \"#utility.yul\":3320:3329   */\n      dup10\n        /* \"#utility.yul\":3316:3338   */\n      add\n        /* \"#utility.yul\":3283:3348   */\n      tag_43\n      jump\t// in\n    tag_110:\n        /* \"#utility.yul\":3265:3348   */\n      swap4\n      pop\n      swap4\n      pop\n        /* \"#utility.yul\":3060:3358   */\n      pop\n        /* \"#utility.yul\":3397:3399   */\n      0x40\n        /* \"#utility.yul\":3423:3476   */\n      tag_111\n        /* \"#utility.yul\":3468:3475   */\n      dup9\n        /* \"#utility.yul\":3459:3465   */\n      dup3\n        /* \"#utility.yul\":3448:3457   */\n      dup10\n        /* \"#utility.yul\":3444:3466   */\n      add\n        /* \"#utility.yul\":3423:3476   */\n      tag_46\n      jump\t// in\n    tag_111:\n        /* \"#utility.yul\":3413:3476   */\n      swap2\n      pop\n        /* \"#utility.yul\":3368:3486   */\n      pop\n        /* \"#utility.yul\":2474:3493   */\n      swap3\n      swap6\n      pop\n      swap3\n      swap6\n      swap1\n      swap4\n      pop\n      jump\t// out\n        /* \"#utility.yul\":3499:3585   */\n    tag_47:\n        /* \"#utility.yul\":3534:3541   */\n      0x00\n        /* \"#utility.yul\":3574:3578   */\n      0xff\n        /* \"#utility.yul\":3567:3572   */\n      dup3\n        /* \"#utility.yul\":3563:3579   */\n      and\n        /* \"#utility.yul\":3552:3579   */\n      swap1\n      pop\n        /* \"#utility.yul\":3499:3585   */\n      swap2\n      swap1\n      pop\n      jump\t// out\n        /* \"#utility.yul\":3591:3709   */\n    tag_48:\n        /* \"#utility.yul\":3662:3684   */\n      tag_114\n        /* \"#utility.yul\":3678:3683   */\n      dup2\n        /* \"#utility.yul\":3662:3684   */\n      tag_47\n      jump\t// in\n    tag_114:\n        /* \"#utility.yul\":3655:3660   */\n      dup2\n        /* \"#utility.yul\":3652:3685   */\n      eq\n        /* \"#utility.yul\":3642:3703   */\n      tag_115\n      jumpi\n        /* \"#utility.yul\":3699:3700   */\n      0x00\n        /* \"#utility.yul\":3696:3697   */\n      dup1\n        /* \"#utility.yul\":3689:3701   */\n      revert\n        /* \"#utility.yul\":3642:3703   */\n    tag_115:\n        /* \"#utility.yul\":3591:3709   */\n      pop\n      jump\t// out\n        /* \"#utility.yul\":3715:3850   */\n    tag_49:\n        /* \"#utility.yul\":3759:3764   */\n      0x00\n        /* \"#utility.yul\":3797:3803   */\n      dup2\n        /* \"#utility.yul\":3784:3804   */\n      calldataload\n        /* \"#utility.yul\":3775:3804   */\n      swap1\n      pop\n        /* \"#utility.yul\":3813:3844   */\n      tag_117\n        /* \"#utility.yul\":3838:3843   */\n      dup2\n        /* \"#utility.yul\":3813:3844   */\n      tag_48\n      jump\t// in\n    tag_117:\n        /* \"#utility.yul\":3715:3850   */\n      swap3\n      swap2\n      pop\n      pop\n      jump\t// out\n        /* \"#utility.yul\":3856:4181   */\n    tag_16:\n        /* \"#utility.yul\":3913:3919   */\n      0x00\n        /* \"#utility.yul\":3962:3964   */\n      0x20\n        /* \"#utility.yul\":3950:3959   */\n      dup3\n        /* \"#utility.yul\":3941:3948   */\n      dup5\n        /* \"#utility.yul\":3937:3960   */\n      sub\n        /* \"#utility.yul\":3933:3965   */\n      slt\n        /* \"#utility.yul\":3930:4049   */\n      iszero\n      tag_119\n      jumpi\n        /* \"#utility.yul\":3968:4047   */\n      tag_120\n      tag_34\n      jump\t// in\n    tag_120:\n        /* \"#utility.yul\":3930:4049   */\n    tag_119:\n        /* \"#utility.yul\":4088:4089   */\n      0x00\n        /* \"#utility.yul\":4113:4164   */\n      tag_121\n        /* \"#utility.yul\":4156:4163   */\n      dup5\n        /* \"#utility.yul\":4147:4153   */\n      dup3\n        /* \"#utility.yul\":4136:4145   */\n      dup6\n        /* \"#utility.yul\":4132:4154   */\n      add\n        /* \"#utility.yul\":4113:4164   */\n      tag_49\n      jump\t// in\n    tag_121:\n        /* \"#utility.yul\":4103:4164   */\n      swap2\n      pop\n        /* \"#utility.yul\":4059:4174   */\n      pop\n        /* \"#utility.yul\":3856:4181   */\n      swap3\n      swap2\n      pop\n      pop\n      jump\t// out\n        /* \"#utility.yul\":4187:4367   */\n    tag_50:\n        /* \"#utility.yul\":4235:4312   */\n      0x4e487b7100000000000000000000000000000000000000000000000000000000\n        /* \"#utility.yul\":4232:4233   */\n      0x00\n        /* \"#utility.yul\":4225:4313   */\n      mstore\n        /* \"#utility.yul\":4332:4336   */\n      0x11\n        /* \"#utility.yul\":4329:4330   */\n      0x04\n        /* \"#utility.yul\":4322:4337   */\n      mstore\n        /* \"#utility.yul\":4356:4360   */\n      0x24\n        /* \"#utility.yul\":4353:4354   */\n      0x00\n        /* \"#utility.yul\":4346:4361   */\n      revert\n        /* \"#utility.yul\":4373:4564   */\n    tag_25:\n        /* \"#utility.yul\":4413:4416   */\n      0x00\n        /* \"#utility.yul\":4432:4452   */\n      tag_124\n        /* \"#utility.yul\":4450:4451   */\n      dup3\n        /* \"#utility.yul\":4432:4452   */\n      tag_44\n      jump\t// in\n    tag_124:\n        /* \"#utility.yul\":4427:4452   */\n      swap2\n      pop\n        /* \"#utility.yul\":4466:4486   */\n      tag_125\n        /* \"#utility.yul\":4484:4485   */\n      dup4\n        /* \"#utility.yul\":4466:4486   */\n      tag_44\n      jump\t// in\n    tag_125:\n        /* \"#utility.yul\":4461:4486   */\n      swap3\n      pop\n        /* \"#utility.yul\":4509:4510   */\n      dup3\n        /* \"#utility.yul\":4506:4507   */\n      dup3\n        /* \"#utility.yul\":4502:4511   */\n      add\n        /* \"#utility.yul\":4495:4511   */\n      swap1\n      pop\n        /* \"#utility.yul\":4530:4533   */\n      dup1\n        /* \"#utility.yul\":4527:4528   */\n      dup3\n        /* \"#utility.yul\":4524:4534   */\n      gt\n        /* \"#utility.yul\":4521:4557   */\n      iszero\n      tag_126\n      jumpi\n        /* \"#utility.yul\":4537:4555   */\n      tag_127\n      tag_50\n      jump\t// in\n    tag_127:\n        /* \"#utility.yul\":4521:4557   */\n    tag_126:\n        /* \"#utility.yul\":4373:4564   */\n      swap3\n      swap2\n      pop\n      pop\n      jump\t// out\n        /* \"#utility.yul\":4570:4669   */\n    tag_51:\n        /* \"#utility.yul\":4622:4628   */\n      0x00\n        /* \"#utility.yul\":4656:4661   */\n      dup2\n        /* \"#utility.yul\":4650:4662   */\n      mload\n        /* \"#utility.yul\":4640:4662   */\n      swap1\n      pop\n        /* \"#utility.yul\":4570:4669   */\n      swap2\n      swap1\n      pop\n      jump\t// out\n        /* \"#utility.yul\":4675:4855   */\n    tag_52:\n        /* \"#utility.yul\":4723:4800   */\n      0x4e487b7100000000000000000000000000000000000000000000000000000000\n        /* \"#utility.yul\":4720:4721   */\n      0x00\n        /* \"#utility.yul\":4713:4801   */\n      mstore\n        /* \"#utility.yul\":4820:4824   */\n      0x41\n        /* \"#utility.yul\":4817:4818   */\n      0x04\n        /* \"#utility.yul\":4810:4825   */\n      mstore\n        /* \"#utility.yul\":4844:4848   */\n      0x24\n        /* \"#utility.yul\":4841:4842   */\n      0x00\n        /* \"#utility.yul\":4834:4849   */\n      revert\n        /* \"#utility.yul\":4861:5041   */\n    tag_53:\n        /* \"#utility.yul\":4909:4986   */\n      0x4e487b7100000000000000000000000000000000000000000000000000000000\n        /* \"#utility.yul\":4906:4907   */\n      0x00\n        /* \"#utility.yul\":4899:4987   */\n      mstore\n        /* \"#utility.yul\":5006:5010   */\n      0x22\n        /* \"#utility.yul\":5003:5004   */\n      0x04\n        /* \"#utility.yul\":4996:5011   */\n      mstore\n        /* \"#utility.yul\":5030:5034   */\n      0x24\n        /* \"#utility.yul\":5027:5028   */\n      0x00\n        /* \"#utility.yul\":5020:5035   */\n      revert\n        /* \"#utility.yul\":5047:5367   */\n    tag_54:\n        /* \"#utility.yul\":5091:5097   */\n      0x00\n        /* \"#utility.yul\":5128:5129   */\n      0x02\n        /* \"#utility.yul\":5122:5126   */\n      dup3\n        /* \"#utility.yul\":5118:5130   */\n      div\n        /* \"#utility.yul\":5108:5130   */\n      swap1\n      pop\n        /* \"#utility.yul\":5175:5176   */\n      0x01\n        /* \"#utility.yul\":5169:5173   */\n      dup3\n        /* \"#utility.yul\":5165:5177   */\n      and\n        /* \"#utility.yul\":5196:5214   */\n      dup1\n        /* \"#utility.yul\":5186:5267   */\n      tag_132\n      jumpi\n        /* \"#utility.yul\":5252:5256   */\n      0x7f\n        /* \"#utility.yul\":5244:5250   */\n      dup3\n        /* \"#utility.yul\":5240:5257   */\n      and\n        /* \"#utility.yul\":5230:5257   */\n      swap2\n      pop\n        /* \"#utility.yul\":5186:5267   */\n    tag_132:\n        /* \"#utility.yul\":5314:5316   */\n      0x20\n        /* \"#utility.yul\":5306:5312   */\n      dup3\n        /* \"#utility.yul\":5303:5317   */\n      lt\n        /* \"#utility.yul\":5283:5301   */\n      dup2\n        /* \"#utility.yul\":5280:5318   */\n      sub\n        /* \"#utility.yul\":5277:5361   */\n      tag_133\n      jumpi\n        /* \"#utility.yul\":5333:5351   */\n      tag_134\n      tag_53\n      jump\t// in\n    tag_134:\n        /* \"#utility.yul\":5277:5361   */\n    tag_133:\n        /* \"#utility.yul\":5098:5367   */\n      pop\n        /* \"#utility.yul\":5047:5367   */\n      swap2\n      swap1\n      pop\n      jump\t// out\n        /* \"#utility.yul\":5373:5514   */\n    tag_55:\n        /* \"#utility.yul\":5422:5426   */\n      0x00\n        /* \"#utility.yul\":5445:5448   */\n      dup2\n        /* \"#utility.yul\":5437:5448   */\n      swap1\n      pop\n        /* \"#utility.yul\":5468:5471   */\n      dup2\n        /* \"#utility.yul\":5465:5466   */\n      0x00\n        /* \"#utility.yul\":5458:5472   */\n      mstore\n        /* \"#utility.yul\":5502:5506   */\n      0x20\n        /* \"#utility.yul\":5499:5500   */\n      0x00\n        /* \"#utility.yul\":5489:5507   */\n      keccak256\n        /* \"#utility.yul\":5481:5507   */\n      swap1\n      pop\n        /* \"#utility.yul\":5373:5514   */\n      swap2\n      swap1\n      pop\n      jump\t// out\n        /* \"#utility.yul\":5520:5613   */\n    tag_56:\n        /* \"#utility.yul\":5557:5563   */\n      0x00\n        /* \"#utility.yul\":5604:5606   */\n      0x20\n        /* \"#utility.yul\":5599:5601   */\n      0x1f\n        /* \"#utility.yul\":5592:5597   */\n      dup4\n        /* \"#utility.yul\":5588:5602   */\n      add\n        /* \"#utility.yul\":5584:5607   */\n      div\n        /* \"#utility.yul\":5574:5607   */\n      swap1\n      pop\n        /* \"#utility.yul\":5520:5613   */\n      swap2\n      swap1\n      pop\n      jump\t// out\n        /* \"#utility.yul\":5619:5726   */\n    tag_57:\n        /* \"#utility.yul\":5663:5671   */\n      0x00\n        /* \"#utility.yul\":5713:5718   */\n      dup3\n        /* \"#utility.yul\":5707:5711   */\n      dup3\n        /* \"#utility.yul\":5703:5719   */\n      shl\n        /* \"#utility.yul\":5682:5719   */\n      swap1\n      pop\n        /* \"#utility.yul\":5619:5726   */\n      swap3\n      swap2\n      pop\n      pop\n      jump\t// out\n        /* \"#utility.yul\":5732:6125   */\n    tag_58:\n        /* \"#utility.yul\":5801:5807   */\n      0x00\n        /* \"#utility.yul\":5851:5852   */\n      0x08\n        /* \"#utility.yul\":5839:5849   */\n      dup4\n        /* \"#utility.yul\":5835:5853   */\n      mul\n        /* \"#utility.yul\":5874:5971   */\n      tag_139\n        /* \"#utility.yul\":5904:5970   */\n      0xffffffffffffffffffffffffffffffffffffffffffffffffffffffffffffffff\n        /* \"#utility.yul\":5893:5902   */\n      dup3\n        /* \"#utility.yul\":5874:5971   */\n      tag_57\n      jump\t// in\n    tag_139:\n        /* \"#utility.yul\":5992:6031   */\n      tag_140\n        /* \"#utility.yul\":6022:6030   */\n      dup7\n        /* \"#utility.yul\":6011:6020   */\n      dup4\n        /* \"#utility.yul\":5992:6031   */\n      tag_57\n      jump\t// in\n    tag_140:\n        /* \"#utility.yul\":5980:6031   */\n      swap6\n      pop\n        /* \"#utility.yul\":6064:6068   */\n      dup1\n        /* \"#utility.yul\":6060:6069   */\n      not\n        /* \"#utility.yul\":6053:6058   */\n      dup5\n        /* \"#utility.yul\":6049:6070   */\n      and\n        /* \"#utility.yul\":6040:6070   */\n      swap4\n      pop\n        /* \"#utility.yul\":6113:6117   */\n      dup1\n        /* \"#utility.yul\":6103:6111   */\n      dup7\n        /* \"#utility.yul\":6099:6118   */\n      and\n        /* \"#utility.yul\":6092:6097   */\n      dup5\n        /* \"#utility.yul\":6089:6119   */\n      or\n        /* \"#utility.yul\":6079:6119   */\n      swap3\n      pop\n        /* \"#utility.yul\":5808:6125   */\n      pop\n      pop\n        /* \"#utility.yul\":5732:6125   */\n      swap4\n      swap3\n      pop\n      pop\n      pop\n      jump\t// out\n        /* \"#utility.yul\":6131:6191   */\n    tag_59:\n        /* \"#utility.yul\":6159:6162   */\n      0x00\n        /* \"#utility.yul\":6180:6185   */\n      dup2\n        /* \"#utility.yul\":6173:6185   */\n      swap1\n      pop\n        /* \"#utility.yul\":6131:6191   */\n      swap2\n      swap1\n      pop\n      jump\t// out\n        /* \"#utility.yul\":6197:6339   */\n    tag_60:\n        /* \"#utility.yul\":6247:6256   */\n      0x00\n        /* \"#utility.yul\":6280:6333   */\n      tag_143\n        /* \"#utility.yul\":6298:6332   */\n      tag_144\n        /* \"#utility.yul\":6307:6331   */\n      tag_145\n        /* \"#utility.yul\":6325:6330   */\n      dup5\n        /* \"#utility.yul\":6307:6331   */\n      tag_44\n      jump\t// in\n    tag_145:\n        /* \"#utility.yul\":6298:6332   */\n      tag_59\n      jump\t// in\n    tag_144:\n        /* \"#utility.yul\":6280:6333   */\n      tag_44\n      jump\t// in\n    tag_143:\n        /* \"#utility.yul\":6267:6333   */\n      swap1\n      pop\n        /* \"#utility.yul\":6197:6339   */\n      swap2\n      swap1\n      pop\n      jump\t// out\n        /* \"#utility.yul\":6345:6420   */\n    tag_61:\n        /* \"#utility.yul\":6388:6391   */\n      0x00\n        /* \"#utility.yul\":6409:6414   */\n      dup2\n        /* \"#utility.yul\":6402:6414   */\n      swap1\n      pop\n        /* \"#utility.yul\":6345:6420   */\n      swap2\n      swap1\n      pop\n      jump\t// out\n        /* \"#utility.yul\":6426:6695   */\n    tag_62:\n        /* \"#utility.yul\":6536:6575   */\n      tag_148\n        /* \"#utility.yul\":6567:6574   */\n      dup4\n        /* \"#utility.yul\":6536:6575   */\n      tag_60\n      jump\t// in\n    tag_148:\n        /* \"#utility.yul\":6597:6688   */\n      tag_149\n        /* \"#utility.yul\":6646:6687   */\n      tag_150\n        /* \"#utility.yul\":6670:6686   */\n      dup3\n        /* \"#utility.yul\":6646:6687   */\n      tag_61\n      jump\t// in\n    tag_150:\n        /* \"#utility.yul\":6638:6644   */\n      dup5\n        /* \"#utility.yul\":6631:6635   */\n      dup5\n        /* \"#utility.yul\":6625:6636   */\n      sload\n        /* \"#utility.yul\":6597:6688   */\n      tag_58\n      jump\t// in\n    tag_149:\n        /* \"#utility.yul\":6591:6595   */\n      dup3\n        /* \"#utility.yul\":6584:6689   */\n      sstore\n        /* \"#utility.yul\":6502:6695   */\n      pop\n        /* \"#utility.yul\":6426:6695   */\n      pop\n      pop\n      pop\n      jump\t// out\n        /* \"#utility.yul\":6701:6774   */\n    tag_63:\n        /* \"#utility.yul\":6746:6749   */\n      0x00\n        /* \"#utility.yul\":6701:6774   */\n      swap1\n      jump\t// out\n        /* \"#utility.yul\":6780:6969   */\n    tag_64:\n        /* \"#utility.yul\":6857:6889   */\n      tag_153\n      tag_63\n      jump\t// in\n    tag_153:\n        /* \"#utility.yul\":6898:6963   */\n      tag_154\n        /* \"#utility.yul\":6956:6962   */\n      dup2\n        /* \"#utility.yul\":6948:6954   */\n      dup5\n        /* \"#utility.yul\":6942:6946   */\n      dup5\n        /* \"#utility.yul\":6898:6963   */\n      tag_62\n      jump\t// in\n    tag_154:\n        /* \"#utility.yul\":6833:6969   */\n      pop\n        /* \"#utility.yul\":6780:6969   */\n      pop\n      pop\n      jump\t// out\n        /* \"#utility.yul\":6975:7161   */\n    tag_65:\n        /* \"#utility.yul\":7035:7155   */\n    tag_156:\n        /* \"#utility.yul\":7052:7055   */\n      dup2\n        /* \"#utility.yul\":7045:7050   */\n      dup2\n        /* \"#utility.yul\":7042:7056   */\n      lt\n        /* \"#utility.yul\":7035:7155   */\n      iszero\n      tag_158\n      jumpi\n        /* \"#utility.yul\":7106:7145   */\n      tag_159\n        /* \"#utility.yul\":7143:7144   */\n      0x00\n        /* \"#utility.yul\":7136:7141   */\n      dup3\n        /* \"#utility.yul\":7106:7145   */\n      tag_64\n      jump\t// in\n    tag_159:\n        /* \"#utility.yul\":7079:7080   */\n      0x01\n        /* \"#utility.yul\":7072:7077   */\n      dup2\n        /* \"#utility.yul\":7068:7081   */\n      add\n        /* \"#utility.yul\":7059:7081   */\n      swap1\n      pop\n        /* \"#utility.yul\":7035:7155   */\n      jump(tag_156)\n    tag_158:\n        /* \"#utility.yul\":6975:7161   */\n      pop\n      pop\n      jump\t// out\n        /* \"#utility.yul\":7167:7710   */\n    tag_66:\n        /* \"#utility.yul\":7268:7270   */\n      0x1f\n        /* \"#utility.yul\":7263:7266   */\n      dup3\n        /* \"#utility.yul\":7260:7271   */\n      gt\n        /* \"#utility.yul\":7257:7703   */\n      iszero\n      tag_161\n      jumpi\n        /* \"#utility.yul\":7302:7340   */\n      tag_162\n        /* \"#utility.yul\":7334:7339   */\n      dup2\n        /* \"#utility.yul\":7302:7340   */\n      tag_55\n      jump\t// in\n    tag_162:\n        /* \"#utility.yul\":7386:7415   */\n      tag_163\n        /* \"#utility.yul\":7404:7414   */\n      dup5\n        /* \"#utility.yul\":7386:7415   */\n      tag_56\n      jump\t// in\n    tag_163:\n        /* \"#utility.yul\":7376:7384   */\n      dup2\n        /* \"#utility.yul\":7372:7416   */\n      add\n        /* \"#utility.yul\":7569:7571   */\n      0x20\n        /* \"#utility.yul\":7557:7567   */\n      dup6\n        /* \"#utility.yul\":7554:7572   */\n      lt\n        /* \"#utility.yul\":7551:7600   */\n      iszero\n      tag_164\n      jumpi\n        /* \"#utility.yul\":7590:7598   */\n      dup2\n        /* \"#utility.yul\":7575:7598   */\n      swap1\n      pop\n        /* \"#utility.yul\":7551:7600   */\n    tag_164:\n        /* \"#utility.yul\":7613:7693   */\n      tag_165\n        /* \"#utility.yul\":7669:7691   */\n      tag_166\n        /* \"#utility.yul\":7687:7690   */\n      dup6\n        /* \"#utility.yul\":7669:7691   */\n      tag_56\n      jump\t// in\n    tag_166:\n        /* \"#utility.yul\":7659:7667   */\n      dup4\n        /* \"#utility.yul\":7655:7692   */\n      add\n        /* \"#utility.yul\":7642:7653   */\n      dup3\n        /* \"#utility.yul\":7613:7693   */\n      tag_65\n      jump\t// in\n    tag_165:\n        /* \"#utility.yul\":7272:7703   */\n      pop\n      pop\n        /* \"#utility.yul\":7257:7703   */\n    tag_161:\n        /* \"#utility.yul\":7167:7710   */\n      pop\n      pop\n      pop\n      jump\t// out\n        /* \"#utility.yul\":7716:7833   */\n    tag_67:\n        /* \"#utility.yul\":7770:7778   */\n      0x00\n        /* \"#utility.yul\":7820:7825   */\n      dup3\n        /* \"#utility.yul\":7814:7818   */\n      dup3\n        /* \"#utility.yul\":7810:7826   */\n      shr\n        /* \"#utility.yul\":7789:7826   */\n      swap1\n      pop\n        /* \"#utility.yul\":7716:7833   */\n      swap3\n      swap2\n      pop\n      pop\n      jump\t// out\n        /* \"#utility.yul\":7839:8008   */\n    tag_68:\n        /* \"#utility.yul\":7883:7889   */\n      0x00\n        /* \"#utility.yul\":7916:7967   */\n      tag_169\n        /* \"#utility.yul\":7964:7965   */\n      0x00\n        /* \"#utility.yul\":7960:7966   */\n      not\n        /* \"#utility.yul\":7952:7957   */\n      dup5\n        /* \"#utility.yul\":7949:7950   */\n      0x08\n        /* \"#utility.yul\":7945:7958   */\n      mul\n        /* \"#utility.yul\":7916:7967   */\n      tag_67\n      jump\t// in\n    tag_169:\n        /* \"#utility.yul\":7912:7968   */\n      not\n        /* \"#utility.yul\":7997:8001   */\n      dup1\n        /* \"#utility.yul\":7991:7995   */\n      dup4\n        /* \"#utility.yul\":7987:8002   */\n      and\n        /* \"#utility.yul\":7977:8002   */\n      swap2\n      pop\n        /* \"#utility.yul\":7890:8008   */\n      pop\n        /* \"#utility.yul\":7839:8008   */\n      swap3\n      swap2\n      pop\n      pop\n      jump\t// out\n        /* \"#utility.yul\":8013:8308   */\n    tag_69:\n        /* \"#utility.yul\":8089:8093   */\n      0x00\n        /* \"#utility.yul\":8235:8264   */\n      tag_171\n        /* \"#utility.yul\":8260:8263   */\n      dup4\n        /* \"#utility.yul\":8254:8258   */\n      dup4\n        /* \"#utility.yul\":8235:8264   */\n      tag_68\n      jump\t// in\n    tag_171:\n        /* \"#utility.yul\":8227:8264   */\n      swap2\n      pop\n        /* \"#utility.yul\":8297:8300   */\n      dup3\n        /* \"#utility.yul\":8294:8295   */\n      0x02\n        /* \"#utility.yul\":8290:8301   */\n      mul\n        /* \"#utility.yul\":8284:8288   */\n      dup3\n        /* \"#utility.yul\":8281:8302   */\n      or\n        /* \"#utility.yul\":8273:8302   */\n      swap1\n      pop\n        /* \"#utility.yul\":8013:8308   */\n      swap3\n      swap2\n      pop\n      pop\n      jump\t// out\n        /* \"#utility.yul\":8313:9708   */\n    tag_27:\n        /* \"#utility.yul\":8430:8467   */\n      tag_173\n        /* \"#utility.yul\":8463:8466   */\n      dup3\n        /* \"#utility.yul\":8430:8467   */\n      tag_51\n      jump\t// in\n    tag_173:\n        /* \"#utility.yul\":8532:8550   */\n      0xffffffffffffffff\n        /* \"#utility.yul\":8524:8530   */\n      dup2\n        /* \"#utility.yul\":8521:8551   */\n      gt\n        /* \"#utility.yul\":8518:8574   */\n      iszero\n      tag_174\n      jumpi\n        /* \"#utility.yul\":8554:8572   */\n      tag_175\n      tag_52\n      jump\t// in\n    tag_175:\n        /* \"#utility.yul\":8518:8574   */\n    tag_174:\n        /* \"#utility.yul\":8598:8636   */\n      tag_176\n        /* \"#utility.yul\":8630:8634   */\n      dup3\n        /* \"#utility.yul\":8624:8635   */\n      sload\n        /* \"#utility.yul\":8598:8636   */\n      tag_54\n      jump\t// in\n    tag_176:\n        /* \"#utility.yul\":8683:8750   */\n      tag_177\n        /* \"#utility.yul\":8743:8749   */\n      dup3\n        /* \"#utility.yul\":8735:8741   */\n      dup3\n        /* \"#utility.yul\":8729:8733   */\n      dup6\n        /* \"#utility.yul\":8683:8750   */\n      tag_66\n      jump\t// in\n    tag_177:\n        /* \"#utility.yul\":8777:8778   */\n      0x00\n        /* \"#utility.yul\":8801:8805   */\n      0x20\n        /* \"#utility.yul\":8788:8805   */\n      swap1\n      pop\n        /* \"#utility.yul\":8833:8835   */\n      0x1f\n        /* \"#utility.yul\":8825:8831   */\n      dup4\n        /* \"#utility.yul\":8822:8836   */\n      gt\n        /* \"#utility.yul\":8850:8851   */\n      0x01\n        /* \"#utility.yul\":8845:9463   */\n      dup2\n      eq\n      tag_179\n      jumpi\n        /* \"#utility.yul\":9507:9508   */\n      0x00\n        /* \"#utility.yul\":9524:9530   */\n      dup5\n        /* \"#utility.yul\":9521:9598   */\n      iszero\n      tag_180\n      jumpi\n        /* \"#utility.yul\":9573:9582   */\n      dup3\n        /* \"#utility.yul\":9568:9571   */\n      dup8\n        /* \"#utility.yul\":9564:9583   */\n      add\n        /* \"#utility.yul\":9558:9584   */\n      mload\n        /* \"#utility.yul\":9549:9584   */\n      swap1\n      pop\n        /* \"#utility.yul\":9521:9598   */\n    tag_180:\n        /* \"#utility.yul\":9624:9691   */\n      tag_181\n        /* \"#utility.yul\":9684:9690   */\n      dup6\n        /* \"#utility.yul\":9677:9682   */\n      dup3\n        /* \"#utility.yul\":9624:9691   */\n      tag_69\n      jump\t// in\n    tag_181:\n        /* \"#utility.yul\":9618:9622   */\n      dup7\n        /* \"#utility.yul\":9611:9692   */\n      sstore\n        /* \"#utility.yul\":9480:9702   */\n      pop\n        /* \"#utility.yul\":8815:9702   */\n      jump(tag_178)\n        /* \"#utility.yul\":8845:9463   */\n    tag_179:\n        /* \"#utility.yul\":8897:8901   */\n      0x1f\n        /* \"#utility.yul\":8893:8902   */\n      not\n        /* \"#utility.yul\":8885:8891   */\n      dup5\n        /* \"#utility.yul\":8881:8903   */\n      and\n        /* \"#utility.yul\":8931:8968   */\n      tag_182\n        /* \"#utility.yul\":8963:8967   */\n      dup7\n        /* \"#utility.yul\":8931:8968   */\n      tag_55\n      jump\t// in\n    tag_182:\n        /* \"#utility.yul\":8990:8991   */\n      0x00\n        /* \"#utility.yul\":9004:9212   */\n    tag_183:\n        /* \"#utility.yul\":9018:9025   */\n      dup3\n        /* \"#utility.yul\":9015:9016   */\n      dup2\n        /* \"#utility.yul\":9012:9026   */\n      lt\n        /* \"#utility.yul\":9004:9212   */\n      iszero\n      tag_185\n      jumpi\n        /* \"#utility.yul\":9097:9106   */\n      dup5\n        /* \"#utility.yul\":9092:9095   */\n      dup10\n        /* \"#utility.yul\":9088:9107   */\n      add\n        /* \"#utility.yul\":9082:9108   */\n      mload\n        /* \"#utility.yul\":9074:9080   */\n      dup3\n        /* \"#utility.yul\":9067:9109   */\n      sstore\n        /* \"#utility.yul\":9148:9149   */\n      0x01\n        /* \"#utility.yul\":9140:9146   */\n      dup3\n        /* \"#utility.yul\":9136:9150   */\n      add\n        /* \"#utility.yul\":9126:9150   */\n      swap2\n      pop\n        /* \"#utility.yul\":9195:9197   */\n      0x20\n        /* \"#utility.yul\":9184:9193   */\n      dup6\n        /* \"#utility.yul\":9180:9198   */\n      add\n        /* \"#utility.yul\":9167:9198   */\n      swap5\n      pop\n        /* \"#utility.yul\":9041:9045   */\n      0x20\n        /* \"#utility.yul\":9038:9039   */\n      dup2\n        /* \"#utility.yul\":9034:9046   */\n      add\n        /* \"#utility.yul\":9029:9046   */\n      swap1\n      pop\n        /* \"#utility.yul\":9004:9212   */\n      jump(tag_183)\n    tag_185:\n        /* \"#utility.yul\":9240:9246   */\n      dup7\n        /* \"#utility.yul\":9231:9238   */\n      dup4\n        /* \"#utility.yul\":9228:9247   */\n      lt\n        /* \"#utility.yul\":9225:9404   */\n      iszero\n      tag_186\n      jumpi\n        /* \"#utility.yul\":9298:9307   */\n      dup5\n        /* \"#utility.yul\":9293:9296   */\n      dup10\n        /* \"#utility.yul\":9289:9308   */\n      add\n        /* \"#utility.yul\":9283:9309   */\n      mload\n        /* \"#utility.yul\":9341:9389   */\n      tag_187\n        /* \"#utility.yul\":9383:9387   */\n      0x1f\n        /* \"#utility.yul\":9375:9381   */\n      dup10\n        /* \"#utility.yul\":9371:9388   */\n      and\n        /* \"#utility.yul\":9360:9369   */\n      dup3\n        /* \"#utility.yul\":9341:9389   */\n      tag_68\n      jump\t// in\n    tag_187:\n        /* \"#utility.yul\":9333:9339   */\n      dup4\n        /* \"#utility.yul\":9326:9390   */\n      sstore\n        /* \"#utility.yul\":9248:9404   */\n      pop\n        /* \"#utility.yul\":9225:9404   */\n    tag_186:\n        /* \"#utility.yul\":9450:9451   */\n      0x01\n        /* \"#utility.yul\":9446:9447   */\n      0x02\n        /* \"#utility.yul\":9438:9444   */\n      dup9\n        /* \"#utility.yul\":9434:9448   */\n      mul\n        /* \"#utility.yul\":9430:9452   */\n      add\n        /* \"#utility.yul\":9424:9428   */\n      dup9\n        /* \"#utility.yul\":9417:9453   */\n      sstore\n        /* \"#utility.yul\":8852:9463   */\n      pop\n      pop\n      pop\n        /* \"#utility.yul\":8815:9702   */\n    tag_178:\n      pop\n        /* \"#utility.yul\":8405:9708   */\n      pop\n      pop\n      pop\n        /* \"#utility.yul\":8313:9708   */\n      pop\n      pop\n      jump\t// out\n\n    auxdata: 0xa26469706673582212204f1fc97b5bca75bb1fdf0169606e4fbc4a19fde7122295a883e169324beb140164736f6c634300081a0033\n}\n",
				"bytecode": {
					"linkReferences": {},
					"object": "6080604052348015600e575f80fd5b503360015f6101000a81548173ffffffffffffffffffffffffffffffffffffffff021916908373ffffffffffffffffffffffffffffffffffffffff16021790555061094f8061005c5f395ff3fe608060405234801561000f575f80fd5b506004361061003f575f3560e01c806313af4035146100435780633ca6d1001461005f578063b3f98adc1461007b575b5f80fd5b61005d60048036038101906100589190610408565b610097565b005b610079600480360381019061007491906104c7565b610132565b005b6100956004803603810190610090919061058e565b610366565b005b60015f9054906101000a900473ffffffffffffffffffffffffffffffffffffffff1673ffffffffffffffffffffffffffffffffffffffff163373ffffffffffffffffffffffffffffffffffffffff16146100ef575f80fd5b8060015f6101000a81548173ffffffffffffffffffffffffffffffffffffffff021916908373ffffffffffffffffffffffffffffffffffffffff16021790555050565b60015f9054906101000a900473ffffffffffffffffffffffffffffffffffffffff1673ffffffffffffffffffffffffffffffffffffffff163373ffffffffffffffffffffffffffffffffffffffff161461018a575f80fd5b60015f8082825461019b91906105e6565b9250508190555060405180610120016040528086868080601f0160208091040260200160405190810160405280939291908181526020018383808284375f81840152601f19601f8201169050808301925050505050505081526020016040518060400160405280600181526020017f2000000000000000000000000000000000000000000000000000000000000000815250815260200184848080601f0160208091040260200160405190810160405280939291908181526020018383808284375f81840152601f19601f8201169050808301925050505050505081526020015f81526020015f81526020015f81526020018281526020015f151581526020016001151581525060025f805481526020019081526020015f205f820151815f0190816102c7919061084a565b5060208201518160010190816102dd919061084a565b5060408201518160020190816102f3919061084a565b50606082015181600301556080820151816004015560a0820151816005015560c0820151816006015560e0820151816007015f6101000a81548160ff0219169083151502179055506101008201518160070160016101000a81548160ff0219169083151502179055509050505050505050565b5f60025f805481526020019081526020015f2090505f81600501548260040154836003015461039591906105e6565b61039f91906105e6565b9050505050565b5f80fd5b5f80fd5b5f73ffffffffffffffffffffffffffffffffffffffff82169050919050565b5f6103d7826103ae565b9050919050565b6103e7816103cd565b81146103f1575f80fd5b50565b5f81359050610402816103de565b92915050565b5f6020828403121561041d5761041c6103a6565b5b5f61042a848285016103f4565b91505092915050565b5f80fd5b5f80fd5b5f80fd5b5f8083601f84011261045457610453610433565b5b8235905067ffffffffffffffff81111561047157610470610437565b5b60208301915083600182028301111561048d5761048c61043b565b5b9250929050565b5f819050919050565b6104a681610494565b81146104b0575f80fd5b50565b5f813590506104c18161049d565b92915050565b5f805f805f606086880312156104e0576104df6103a6565b5b5f86013567ffffffffffffffff8111156104fd576104fc6103aa565b5b6105098882890161043f565b9550955050602086013567ffffffffffffffff81111561052c5761052b6103aa565b5b6105388882890161043f565b9350935050604061054b888289016104b3565b9150509295509295909350565b5f60ff82169050919050565b61056d81610558565b8114610577575f80fd5b50565b5f8135905061058881610564565b92915050565b5f602082840312156105a3576105a26103a6565b5b5f6105b08482850161057a565b91505092915050565b7f4e487b71000000000000000000000000000000000000000000000000000000005f52601160045260245ffd5b5f6105f082610494565b91506105fb83610494565b9250828201905080821115610613576106126105b9565b5b92915050565b5f81519050919050565b7f4e487b71000000000000000000000000000000000000000000000000000000005f52604160045260245ffd5b7f4e487b71000000000000000000000000000000000000000000000000000000005f52602260045260245ffd5b5f600282049050600182168061069457607f821691505b6020821081036106a7576106a6610650565b5b50919050565b5f819050815f5260205f209050919050565b5f6020601f8301049050919050565b5f82821b905092915050565b5f600883026107097fffffffffffffffffffffffffffffffffffffffffffffffffffffffffffffffff826106ce565b61071386836106ce565b95508019841693508086168417925050509392505050565b5f819050919050565b5f61074e61074961074484610494565b61072b565b610494565b9050919050565b5f819050919050565b61076783610734565b61077b61077382610755565b8484546106da565b825550505050565b5f90565b61078f610783565b61079a81848461075e565b505050565b5b818110156107bd576107b25f82610787565b6001810190506107a0565b5050565b601f821115610802576107d3816106ad565b6107dc846106bf565b810160208510156107eb578190505b6107ff6107f7856106bf565b83018261079f565b50505b505050565b5f82821c905092915050565b5f6108225f1984600802610807565b1980831691505092915050565b5f61083a8383610813565b9150826002028217905092915050565b61085382610619565b67ffffffffffffffff81111561086c5761086b610623565b5b610876825461067d565b6108818282856107c1565b5f60209050601f8311600181146108b2575f84156108a0578287015190505b6108aa858261082f565b865550610911565b601f1984166108c0866106ad565b5f5b828110156108e7578489015182556001820191506020850194506020810190506108c2565b868310156109045784890151610900601f891682610813565b8355505b6001600288020188555050505b50505050505056fea26469706673582212204f1fc97b5bca75bb1fdf0169606e4fbc4a19fde7122295a883e169324beb140164736f6c634300081a0033",
					"opcodes": "PUSH1 0x80 PUSH1 0x40 MSTORE CALLVALUE DUP1 ISZERO PUSH1 0xE JUMPI PUSH0 DUP1 REVERT JUMPDEST POP CALLER PUSH1 0x1 PUSH0 PUSH2 0x100 EXP DUP2 SLOAD DUP2 PUSH20 0xFFFFFFFFFFFFFFFFFFFFFFFFFFFFFFFFFFFFFFFF MUL NOT AND SWAP1 DUP4 PUSH20 0xFFFFFFFFFFFFFFFFFFFFFFFFFFFFFFFFFFFFFFFF AND MUL OR SWAP1 SSTORE POP PUSH2 0x94F DUP1 PUSH2 0x5C PUSH0 CODECOPY PUSH0 RETURN INVALID PUSH1 0x80 PUSH1 0x40 MSTORE CALLVALUE DUP1 ISZERO PUSH2 0xF JUMPI PUSH0 DUP1 REVERT JUMPDEST POP PUSH1 0x4 CALLDATASIZE LT PUSH2 0x3F JUMPI PUSH0 CALLDATALOAD PUSH1 0xE0 SHR DUP1 PUSH4 0x13AF4035 EQ PUSH2 0x43 JUMPI DUP1 PUSH4 0x3CA6D100 EQ PUSH2 0x5F JUMPI DUP1 PUSH4 0xB3F98ADC EQ PUSH2 0x7B JUMPI JUMPDEST PUSH0 DUP1 REVERT JUMPDEST PUSH2 0x5D PUSH1 0x4 DUP1 CALLDATASIZE SUB DUP2 ADD SWAP1 PUSH2 0x58 SWAP2 SWAP1 PUSH2 0x408 JUMP JUMPDEST PUSH2 0x97 JUMP JUMPDEST STOP JUMPDEST PUSH2 0x79 PUSH1 0x4 DUP1 CALLDATASIZE SUB DUP2 ADD SWAP1 PUSH2 0x74 SWAP2 SWAP1 PUSH2 0x4C7 JUMP JUMPDEST PUSH2 0x132 JUMP JUMPDEST STOP JUMPDEST PUSH2 0x95 PUSH1 0x4 DUP1 CALLDATASIZE SUB DUP2 ADD SWAP1 PUSH2 0x90 SWAP2 SWAP1 PUSH2 0x58E JUMP JUMPDEST PUSH2 0x366 JUMP JUMPDEST STOP JUMPDEST PUSH1 0x1 PUSH0 SWAP1 SLOAD SWAP1 PUSH2 0x100 EXP SWAP1 DIV PUSH20 0xFFFFFFFFFFFFFFFFFFFFFFFFFFFFFFFFFFFFFFFF AND PUSH20 0xFFFFFFFFFFFFFFFFFFFFFFFFFFFFFFFFFFFFFFFF AND CALLER PUSH20 0xFFFFFFFFFFFFFFFFFFFFFFFFFFFFFFFFFFFFFFFF AND EQ PUSH2 0xEF JUMPI PUSH0 DUP1 REVERT JUMPDEST DUP1 PUSH1 0x1 PUSH0 PUSH2 0x100 EXP DUP2 SLOAD DUP2 PUSH20 0xFFFFFFFFFFFFFFFFFFFFFFFFFFFFFFFFFFFFFFFF MUL NOT AND SWAP1 DUP4 PUSH20 0xFFFFFFFFFFFFFFFFFFFFFFFFFFFFFFFFFFFFFFFF AND MUL OR SWAP1 SSTORE POP POP JUMP JUMPDEST PUSH1 0x1 PUSH0 SWAP1 SLOAD SWAP1 PUSH2 0x100 EXP SWAP1 DIV PUSH20 0xFFFFFFFFFFFFFFFFFFFFFFFFFFFFFFFFFFFFFFFF AND PUSH20 0xFFFFFFFFFFFFFFFFFFFFFFFFFFFFFFFFFFFFFFFF AND CALLER PUSH20 0xFFFFFFFFFFFFFFFFFFFFFFFFFFFFFFFFFFFFFFFF AND EQ PUSH2 0x18A JUMPI PUSH0 DUP1 REVERT JUMPDEST PUSH1 0x1 PUSH0 DUP1 DUP3 DUP3 SLOAD PUSH2 0x19B SWAP2 SWAP1 PUSH2 0x5E6 JUMP JUMPDEST SWAP3 POP POP DUP2 SWAP1 SSTORE POP PUSH1 0x40 MLOAD DUP1 PUSH2 0x120 ADD PUSH1 0x40 MSTORE DUP1 DUP7 DUP7 DUP1 DUP1 PUSH1 0x1F ADD PUSH1 0x20 DUP1 SWAP2 DIV MUL PUSH1 0x20 ADD PUSH1 0x40 MLOAD SWAP1 DUP2 ADD PUSH1 0x40 MSTORE DUP1 SWAP4 SWAP3 SWAP2 SWAP1 DUP2 DUP2 MSTORE PUSH1 0x20 ADD DUP4 DUP4 DUP1 DUP3 DUP5 CALLDATACOPY PUSH0 DUP2 DUP5 ADD MSTORE PUSH1 0x1F NOT PUSH1 0x1F DUP3 ADD AND SWAP1 POP DUP1 DUP4 ADD SWAP3 POP POP POP POP POP POP POP DUP2 MSTORE PUSH1 0x20 ADD PUSH1 0x40 MLOAD DUP1 PUSH1 0x40 ADD PUSH1 0x40 MSTORE DUP1 PUSH1 0x1 DUP2 MSTORE PUSH1 0x20 ADD PUSH32 0x2000000000000000000000000000000000000000000000000000000000000000 DUP2 MSTORE POP DUP2 MSTORE PUSH1 0x20 ADD DUP5 DUP5 DUP1 DUP1 PUSH1 0x1F ADD PUSH1 0x20 DUP1 SWAP2 DIV MUL PUSH1 0x20 ADD PUSH1 0x40 MLOAD SWAP1 DUP2 ADD PUSH1 0x40 MSTORE DUP1 SWAP4 SWAP3 SWAP2 SWAP1 DUP2 DUP2 MSTORE PUSH1 0x20 ADD DUP4 DUP4 DUP1 DUP3 DUP5 CALLDATACOPY PUSH0 DUP2 DUP5 ADD MSTORE PUSH1 0x1F NOT PUSH1 0x1F DUP3 ADD AND SWAP1 POP DUP1 DUP4 ADD SWAP3 POP POP POP POP POP POP POP DUP2 MSTORE PUSH1 0x20 ADD PUSH0 DUP2 MSTORE PUSH1 0x20 ADD PUSH0 DUP2 MSTORE PUSH1 0x20 ADD PUSH0 DUP2 MSTORE PUSH1 0x20 ADD DUP3 DUP2 MSTORE PUSH1 0x20 ADD PUSH0 ISZERO ISZERO DUP2 MSTORE PUSH1 0x20 ADD PUSH1 0x1 ISZERO ISZERO DUP2 MSTORE POP PUSH1 0x2 PUSH0 DUP1 SLOAD DUP2 MSTORE PUSH1 0x20 ADD SWAP1 DUP2 MSTORE PUSH1 0x20 ADD PUSH0 KECCAK256 PUSH0 DUP3 ADD MLOAD DUP2 PUSH0 ADD SWAP1 DUP2 PUSH2 0x2C7 SWAP2 SWAP1 PUSH2 0x84A JUMP JUMPDEST POP PUSH1 0x20 DUP3 ADD MLOAD DUP2 PUSH1 0x1 ADD SWAP1 DUP2 PUSH2 0x2DD SWAP2 SWAP1 PUSH2 0x84A JUMP JUMPDEST POP PUSH1 0x40 DUP3 ADD MLOAD DUP2 PUSH1 0x2 ADD SWAP1 DUP2 PUSH2 0x2F3 SWAP2 SWAP1 PUSH2 0x84A JUMP JUMPDEST POP PUSH1 0x60 DUP3 ADD MLOAD DUP2 PUSH1 0x3 ADD SSTORE PUSH1 0x80 DUP3 ADD MLOAD DUP2 PUSH1 0x4 ADD SSTORE PUSH1 0xA0 DUP3 ADD MLOAD DUP2 PUSH1 0x5 ADD SSTORE PUSH1 0xC0 DUP3 ADD MLOAD DUP2 PUSH1 0x6 ADD SSTORE PUSH1 0xE0 DUP3 ADD MLOAD DUP2 PUSH1 0x7 ADD PUSH0 PUSH2 0x100 EXP DUP2 SLOAD DUP2 PUSH1 0xFF MUL NOT AND SWAP1 DUP4 ISZERO ISZERO MUL OR SWAP1 SSTORE POP PUSH2 0x100 DUP3 ADD MLOAD DUP2 PUSH1 0x7 ADD PUSH1 0x1 PUSH2 0x100 EXP DUP2 SLOAD DUP2 PUSH1 0xFF MUL NOT AND SWAP1 DUP4 ISZERO ISZERO MUL OR SWAP1 SSTORE POP SWAP1 POP POP POP POP POP POP POP JUMP JUMPDEST PUSH0 PUSH1 0x2 PUSH0 DUP1 SLOAD DUP2 MSTORE PUSH1 0x20 ADD SWAP1 DUP2 MSTORE PUSH1 0x20 ADD PUSH0 KECCAK256 SWAP1 POP PUSH0 DUP2 PUSH1 0x5 ADD SLOAD DUP3 PUSH1 0x4 ADD SLOAD DUP4 PUSH1 0x3 ADD SLOAD PUSH2 0x395 SWAP2 SWAP1 PUSH2 0x5E6 JUMP JUMPDEST PUSH2 0x39F SWAP2 SWAP1 PUSH2 0x5E6 JUMP JUMPDEST SWAP1 POP POP POP POP JUMP JUMPDEST PUSH0 DUP1 REVERT JUMPDEST PUSH0 DUP1 REVERT JUMPDEST PUSH0 PUSH20 0xFFFFFFFFFFFFFFFFFFFFFFFFFFFFFFFFFFFFFFFF DUP3 AND SWAP1 POP SWAP2 SWAP1 POP JUMP JUMPDEST PUSH0 PUSH2 0x3D7 DUP3 PUSH2 0x3AE JUMP JUMPDEST SWAP1 POP SWAP2 SWAP1 POP JUMP JUMPDEST PUSH2 0x3E7 DUP2 PUSH2 0x3CD JUMP JUMPDEST DUP2 EQ PUSH2 0x3F1 JUMPI PUSH0 DUP1 REVERT JUMPDEST POP JUMP JUMPDEST PUSH0 DUP2 CALLDATALOAD SWAP1 POP PUSH2 0x402 DUP2 PUSH2 0x3DE JUMP JUMPDEST SWAP3 SWAP2 POP POP JUMP JUMPDEST PUSH0 PUSH1 0x20 DUP3 DUP5 SUB SLT ISZERO PUSH2 0x41D JUMPI PUSH2 0x41C PUSH2 0x3A6 JUMP JUMPDEST JUMPDEST PUSH0 PUSH2 0x42A DUP5 DUP3 DUP6 ADD PUSH2 0x3F4 JUMP JUMPDEST SWAP2 POP POP SWAP3 SWAP2 POP POP JUMP JUMPDEST PUSH0 DUP1 REVERT JUMPDEST PUSH0 DUP1 REVERT JUMPDEST PUSH0 DUP1 REVERT JUMPDEST PUSH0 DUP1 DUP4 PUSH1 0x1F DUP5 ADD SLT PUSH2 0x454 JUMPI PUSH2 0x453 PUSH2 0x433 JUMP JUMPDEST JUMPDEST DUP3 CALLDATALOAD SWAP1 POP PUSH8 0xFFFFFFFFFFFFFFFF DUP2 GT ISZERO PUSH2 0x471 JUMPI PUSH2 0x470 PUSH2 0x437 JUMP JUMPDEST JUMPDEST PUSH1 0x20 DUP4 ADD SWAP2 POP DUP4 PUSH1 0x1 DUP3 MUL DUP4 ADD GT ISZERO PUSH2 0x48D JUMPI PUSH2 0x48C PUSH2 0x43B JUMP JUMPDEST JUMPDEST SWAP3 POP SWAP3 SWAP1 POP JUMP JUMPDEST PUSH0 DUP2 SWAP1 POP SWAP2 SWAP1 POP JUMP JUMPDEST PUSH2 0x4A6 DUP2 PUSH2 0x494 JUMP JUMPDEST DUP2 EQ PUSH2 0x4B0 JUMPI PUSH0 DUP1 REVERT JUMPDEST POP JUMP JUMPDEST PUSH0 DUP2 CALLDATALOAD SWAP1 POP PUSH2 0x4C1 DUP2 PUSH2 0x49D JUMP JUMPDEST SWAP3 SWAP2 POP POP JUMP JUMPDEST PUSH0 DUP1 PUSH0 DUP1 PUSH0 PUSH1 0x60 DUP7 DUP9 SUB SLT ISZERO PUSH2 0x4E0 JUMPI PUSH2 0x4DF PUSH2 0x3A6 JUMP JUMPDEST JUMPDEST PUSH0 DUP7 ADD CALLDATALOAD PUSH8 0xFFFFFFFFFFFFFFFF DUP2 GT ISZERO PUSH2 0x4FD JUMPI PUSH2 0x4FC PUSH2 0x3AA JUMP JUMPDEST JUMPDEST PUSH2 0x509 DUP9 DUP3 DUP10 ADD PUSH2 0x43F JUMP JUMPDEST SWAP6 POP SWAP6 POP POP PUSH1 0x20 DUP7 ADD CALLDATALOAD PUSH8 0xFFFFFFFFFFFFFFFF DUP2 GT ISZERO PUSH2 0x52C JUMPI PUSH2 0x52B PUSH2 0x3AA JUMP JUMPDEST JUMPDEST PUSH2 0x538 DUP9 DUP3 DUP10 ADD PUSH2 0x43F JUMP JUMPDEST SWAP4 POP SWAP4 POP POP PUSH1 0x40 PUSH2 0x54B DUP9 DUP3 DUP10 ADD PUSH2 0x4B3 JUMP JUMPDEST SWAP2 POP POP SWAP3 SWAP6 POP SWAP3 SWAP6 SWAP1 SWAP4 POP JUMP JUMPDEST PUSH0 PUSH1 0xFF DUP3 AND SWAP1 POP SWAP2 SWAP1 POP JUMP JUMPDEST PUSH2 0x56D DUP2 PUSH2 0x558 JUMP JUMPDEST DUP2 EQ PUSH2 0x577 JUMPI PUSH0 DUP1 REVERT JUMPDEST POP JUMP JUMPDEST PUSH0 DUP2 CALLDATALOAD SWAP1 POP PUSH2 0x588 DUP2 PUSH2 0x564 JUMP JUMPDEST SWAP3 SWAP2 POP POP JUMP JUMPDEST PUSH0 PUSH1 0x20 DUP3 DUP5 SUB SLT ISZERO PUSH2 0x5A3 JUMPI PUSH2 0x5A2 PUSH2 0x3A6 JUMP JUMPDEST JUMPDEST PUSH0 PUSH2 0x5B0 DUP5 DUP3 DUP6 ADD PUSH2 0x57A JUMP JUMPDEST SWAP2 POP POP SWAP3 SWAP2 POP POP JUMP JUMPDEST PUSH32 0x4E487B7100000000000000000000000000000000000000000000000000000000 PUSH0 MSTORE PUSH1 0x11 PUSH1 0x4 MSTORE PUSH1 0x24 PUSH0 REVERT JUMPDEST PUSH0 PUSH2 0x5F0 DUP3 PUSH2 0x494 JUMP JUMPDEST SWAP2 POP PUSH2 0x5FB DUP4 PUSH2 0x494 JUMP JUMPDEST SWAP3 POP DUP3 DUP3 ADD SWAP1 POP DUP1 DUP3 GT ISZERO PUSH2 0x613 JUMPI PUSH2 0x612 PUSH2 0x5B9 JUMP JUMPDEST JUMPDEST SWAP3 SWAP2 POP POP JUMP JUMPDEST PUSH0 DUP2 MLOAD SWAP1 POP SWAP2 SWAP1 POP JUMP JUMPDEST PUSH32 0x4E487B7100000000000000000000000000000000000000000000000000000000 PUSH0 MSTORE PUSH1 0x41 PUSH1 0x4 MSTORE PUSH1 0x24 PUSH0 REVERT JUMPDEST PUSH32 0x4E487B7100000000000000000000000000000000000000000000000000000000 PUSH0 MSTORE PUSH1 0x22 PUSH1 0x4 MSTORE PUSH1 0x24 PUSH0 REVERT JUMPDEST PUSH0 PUSH1 0x2 DUP3 DIV SWAP1 POP PUSH1 0x1 DUP3 AND DUP1 PUSH2 0x694 JUMPI PUSH1 0x7F DUP3 AND SWAP2 POP JUMPDEST PUSH1 0x20 DUP3 LT DUP2 SUB PUSH2 0x6A7 JUMPI PUSH2 0x6A6 PUSH2 0x650 JUMP JUMPDEST JUMPDEST POP SWAP2 SWAP1 POP JUMP JUMPDEST PUSH0 DUP2 SWAP1 POP DUP2 PUSH0 MSTORE PUSH1 0x20 PUSH0 KECCAK256 SWAP1 POP SWAP2 SWAP1 POP JUMP JUMPDEST PUSH0 PUSH1 0x20 PUSH1 0x1F DUP4 ADD DIV SWAP1 POP SWAP2 SWAP1 POP JUMP JUMPDEST PUSH0 DUP3 DUP3 SHL SWAP1 POP SWAP3 SWAP2 POP POP JUMP JUMPDEST PUSH0 PUSH1 0x8 DUP4 MUL PUSH2 0x709 PUSH32 0xFFFFFFFFFFFFFFFFFFFFFFFFFFFFFFFFFFFFFFFFFFFFFFFFFFFFFFFFFFFFFFFF DUP3 PUSH2 0x6CE JUMP JUMPDEST PUSH2 0x713 DUP7 DUP4 PUSH2 0x6CE JUMP JUMPDEST SWAP6 POP DUP1 NOT DUP5 AND SWAP4 POP DUP1 DUP7 AND DUP5 OR SWAP3 POP POP POP SWAP4 SWAP3 POP POP POP JUMP JUMPDEST PUSH0 DUP2 SWAP1 POP SWAP2 SWAP1 POP JUMP JUMPDEST PUSH0 PUSH2 0x74E PUSH2 0x749 PUSH2 0x744 DUP5 PUSH2 0x494 JUMP JUMPDEST PUSH2 0x72B JUMP JUMPDEST PUSH2 0x494 JUMP JUMPDEST SWAP1 POP SWAP2 SWAP1 POP JUMP JUMPDEST PUSH0 DUP2 SWAP1 POP SWAP2 SWAP1 POP JUMP JUMPDEST PUSH2 0x767 DUP4 PUSH2 0x734 JUMP JUMPDEST PUSH2 0x77B PUSH2 0x773 DUP3 PUSH2 0x755 JUMP JUMPDEST DUP5 DUP5 SLOAD PUSH2 0x6DA JUMP JUMPDEST DUP3 SSTORE POP POP POP POP JUMP JUMPDEST PUSH0 SWAP1 JUMP JUMPDEST PUSH2 0x78F PUSH2 0x783 JUMP JUMPDEST PUSH2 0x79A DUP2 DUP5 DUP5 PUSH2 0x75E JUMP JUMPDEST POP POP POP JUMP JUMPDEST JUMPDEST DUP2 DUP2 LT ISZERO PUSH2 0x7BD JUMPI PUSH2 0x7B2 PUSH0 DUP3 PUSH2 0x787 JUMP JUMPDEST PUSH1 0x1 DUP2 ADD SWAP1 POP PUSH2 0x7A0 JUMP JUMPDEST POP POP JUMP JUMPDEST PUSH1 0x1F DUP3 GT ISZERO PUSH2 0x802 JUMPI PUSH2 0x7D3 DUP2 PUSH2 0x6AD JUMP JUMPDEST PUSH2 0x7DC DUP5 PUSH2 0x6BF JUMP JUMPDEST DUP2 ADD PUSH1 0x20 DUP6 LT ISZERO PUSH2 0x7EB JUMPI DUP2 SWAP1 POP JUMPDEST PUSH2 0x7FF PUSH2 0x7F7 DUP6 PUSH2 0x6BF JUMP JUMPDEST DUP4 ADD DUP3 PUSH2 0x79F JUMP JUMPDEST POP POP JUMPDEST POP POP POP JUMP JUMPDEST PUSH0 DUP3 DUP3 SHR SWAP1 POP SWAP3 SWAP2 POP POP JUMP JUMPDEST PUSH0 PUSH2 0x822 PUSH0 NOT DUP5 PUSH1 0x8 MUL PUSH2 0x807 JUMP JUMPDEST NOT DUP1 DUP4 AND SWAP2 POP POP SWAP3 SWAP2 POP POP JUMP JUMPDEST PUSH0 PUSH2 0x83A DUP4 DUP4 PUSH2 0x813 JUMP JUMPDEST SWAP2 POP DUP3 PUSH1 0x2 MUL DUP3 OR SWAP1 POP SWAP3 SWAP2 POP POP JUMP JUMPDEST PUSH2 0x853 DUP3 PUSH2 0x619 JUMP JUMPDEST PUSH8 0xFFFFFFFFFFFFFFFF DUP2 GT ISZERO PUSH2 0x86C JUMPI PUSH2 0x86B PUSH2 0x623 JUMP JUMPDEST JUMPDEST PUSH2 0x876 DUP3 SLOAD PUSH2 0x67D JUMP JUMPDEST PUSH2 0x881 DUP3 DUP3 DUP6 PUSH2 0x7C1 JUMP JUMPDEST PUSH0 PUSH1 0x20 SWAP1 POP PUSH1 0x1F DUP4 GT PUSH1 0x1 DUP2 EQ PUSH2 0x8B2 JUMPI PUSH0 DUP5 ISZERO PUSH2 0x8A0 JUMPI DUP3 DUP8 ADD MLOAD SWAP1 POP JUMPDEST PUSH2 0x8AA DUP6 DUP3 PUSH2 0x82F JUMP JUMPDEST DUP7 SSTORE POP PUSH2 0x911 JUMP JUMPDEST PUSH1 0x1F NOT DUP5 AND PUSH2 0x8C0 DUP7 PUSH2 0x6AD JUMP JUMPDEST PUSH0 JUMPDEST DUP3 DUP2 LT ISZERO PUSH2 0x8E7 JUMPI DUP5 DUP10 ADD MLOAD DUP3 SSTORE PUSH1 0x1 DUP3 ADD SWAP2 POP PUSH1 0x20 DUP6 ADD SWAP5 POP PUSH1 0x20 DUP2 ADD SWAP1 POP PUSH2 0x8C2 JUMP JUMPDEST DUP7 DUP4 LT ISZERO PUSH2 0x904 JUMPI DUP5 DUP10 ADD MLOAD PUSH2 0x900 PUSH1 0x1F DUP10 AND DUP3 PUSH2 0x813 JUMP JUMPDEST DUP4 SSTORE POP JUMPDEST PUSH1 0x1 PUSH1 0x2 DUP9 MUL ADD DUP9 SSTORE POP POP POP JUMPDEST POP POP POP POP POP POP JUMP INVALID LOG2 PUSH5 0x6970667358 0x22 SLT KECCAK256 0x4F 0x1F 0xC9 PUSH28 0x5BCA75BB1FDF0169606E4FBC4A19FDE7122295A883E169324BEB1401 PUSH5 0x736F6C6343 STOP ADDMOD BYTE STOP CALLER "
				},
				"gasEstimates": {
					"creation": {
						"codeDepositCost": "476600",
						"executionCost": "24774",
						"totalCost": "501374"
					},
					"external": {
						"create(string,string,uint256)": "infinite",
						"setOwner(address)": "26862",
						"vote(uint8)": "infinite"
					}
				},
				"methodIdentifiers": {
					"create(string,string,uint256)": "3ca6d100",
					"setOwner(address)": "13af4035",
					"vote(uint8)": "b3f98adc"
				}
			},
			"storageLayout": {
				"storage": [
					{
						"astId": 3,
						"contract": "Contracts/proposal.sol:ProposalContract",
						"label": "counter",
						"offset": 0,
						"slot": "0",
						"type": "t_uint256"
					},
					{
						"astId": 5,
						"contract": "Contracts/proposal.sol:ProposalContract",
						"label": "owner",
						"offset": 0,
						"slot": "1",
						"type": "t_address"
					},
					{
						"astId": 29,
						"contract": "Contracts/proposal.sol:ProposalContract",
						"label": "proposal_history",
						"offset": 0,
						"slot": "2",
						"type": "t_mapping(t_uint256,t_struct(Proposal)24_storage)"
					}
				],
				"types": {
					"t_address": {
						"encoding": "inplace",
						"label": "address",
						"numberOfBytes": "20"
					},
					"t_bool": {
						"encoding": "inplace",
						"label": "bool",
						"numberOfBytes": "1"
					},
					"t_mapping(t_uint256,t_struct(Proposal)24_storage)": {
						"encoding": "mapping",
						"key": "t_uint256",
						"label": "mapping(uint256 => struct ProposalContract.Proposal)",
						"numberOfBytes": "32",
						"value": "t_struct(Proposal)24_storage"
					},
					"t_string_storage": {
						"encoding": "bytes",
						"label": "string",
						"numberOfBytes": "32"
					},
					"t_struct(Proposal)24_storage": {
						"encoding": "inplace",
						"label": "struct ProposalContract.Proposal",
						"members": [
							{
								"astId": 7,
								"contract": "Contracts/proposal.sol:ProposalContract",
								"label": "title",
								"offset": 0,
								"slot": "0",
								"type": "t_string_storage"
							},
							{
								"astId": 9,
								"contract": "Contracts/proposal.sol:ProposalContract",
								"label": "voting",
								"offset": 0,
								"slot": "1",
								"type": "t_string_storage"
							},
							{
								"astId": 11,
								"contract": "Contracts/proposal.sol:ProposalContract",
								"label": "description",
								"offset": 0,
								"slot": "2",
								"type": "t_string_storage"
							},
							{
								"astId": 13,
								"contract": "Contracts/proposal.sol:ProposalContract",
								"label": "approve",
								"offset": 0,
								"slot": "3",
								"type": "t_uint256"
							},
							{
								"astId": 15,
								"contract": "Contracts/proposal.sol:ProposalContract",
								"label": "reject",
								"offset": 0,
								"slot": "4",
								"type": "t_uint256"
							},
							{
								"astId": 17,
								"contract": "Contracts/proposal.sol:ProposalContract",
								"label": "pass",
								"offset": 0,
								"slot": "5",
								"type": "t_uint256"
							},
							{
								"astId": 19,
								"contract": "Contracts/proposal.sol:ProposalContract",
								"label": "total_vote_to_end",
								"offset": 0,
								"slot": "6",
								"type": "t_uint256"
							},
							{
								"astId": 21,
								"contract": "Contracts/proposal.sol:ProposalContract",
								"label": "current_state",
								"offset": 0,
								"slot": "7",
								"type": "t_bool"
							},
							{
								"astId": 23,
								"contract": "Contracts/proposal.sol:ProposalContract",
								"label": "is_active",
								"offset": 1,
								"slot": "7",
								"type": "t_bool"
							}
						],
						"numberOfBytes": "256"
					},
					"t_uint256": {
						"encoding": "inplace",
						"label": "uint256",
						"numberOfBytes": "32"
					}
				}
			},
			"userdoc": {
				"kind": "user",
				"methods": {},
				"version": 1
			}
		}
	}
}